{
  "contractName": "StakingToken",
  "abi": [
    {
      "inputs": [
        {
          "internalType": "contract TestToken",
          "name": "_testToken",
          "type": "address"
        }
      ],
      "stateMutability": "payable",
      "type": "constructor",
      "payable": true
    },
    {
      "inputs": [],
      "name": "customAPY",
      "outputs": [
        {
          "internalType": "uint256",
          "name": "",
          "type": "uint256"
        }
      ],
      "stateMutability": "view",
      "type": "function",
      "constant": true
    },
    {
      "inputs": [
        {
          "internalType": "address",
          "name": "",
          "type": "address"
        }
      ],
      "name": "customHasStaked",
      "outputs": [
        {
          "internalType": "bool",
          "name": "",
          "type": "bool"
        }
      ],
      "stateMutability": "view",
      "type": "function",
      "constant": true
    },
    {
      "inputs": [
        {
          "internalType": "address",
          "name": "",
          "type": "address"
        }
      ],
      "name": "customIsStakingAtm",
      "outputs": [
        {
          "internalType": "bool",
          "name": "",
          "type": "bool"
        }
      ],
      "stateMutability": "view",
      "type": "function",
      "constant": true
    },
    {
      "inputs": [
        {
          "internalType": "uint256",
          "name": "",
          "type": "uint256"
        }
      ],
      "name": "customStakers",
      "outputs": [
        {
          "internalType": "address",
          "name": "",
          "type": "address"
        }
      ],
      "stateMutability": "view",
      "type": "function",
      "constant": true
    },
    {
      "inputs": [
        {
          "internalType": "address",
          "name": "",
          "type": "address"
        }
      ],
      "name": "customStakingBalance",
      "outputs": [
        {
          "internalType": "uint256",
          "name": "",
          "type": "uint256"
        }
      ],
      "stateMutability": "view",
      "type": "function",
      "constant": true
    },
    {
      "inputs": [],
      "name": "customTotalStaked",
      "outputs": [
        {
          "internalType": "uint256",
          "name": "",
          "type": "uint256"
        }
      ],
      "stateMutability": "view",
      "type": "function",
      "constant": true
    },
    {
      "inputs": [],
      "name": "defaultAPY",
      "outputs": [
        {
          "internalType": "uint256",
          "name": "",
          "type": "uint256"
        }
      ],
      "stateMutability": "view",
      "type": "function",
      "constant": true
    },
    {
      "inputs": [
        {
          "internalType": "address",
          "name": "",
          "type": "address"
        }
      ],
      "name": "hasStaked",
      "outputs": [
        {
          "internalType": "bool",
          "name": "",
          "type": "bool"
        }
      ],
      "stateMutability": "view",
      "type": "function",
      "constant": true
    },
    {
      "inputs": [
        {
          "internalType": "address",
          "name": "",
          "type": "address"
        }
      ],
      "name": "isStakingAtm",
      "outputs": [
        {
          "internalType": "bool",
          "name": "",
          "type": "bool"
        }
      ],
      "stateMutability": "view",
      "type": "function",
      "constant": true
    },
    {
      "inputs": [],
      "name": "name",
      "outputs": [
        {
          "internalType": "string",
          "name": "",
          "type": "string"
        }
      ],
      "stateMutability": "view",
      "type": "function",
      "constant": true
    },
    {
      "inputs": [],
      "name": "owner",
      "outputs": [
        {
          "internalType": "address",
          "name": "",
          "type": "address"
        }
      ],
      "stateMutability": "view",
      "type": "function",
      "constant": true
    },
    {
      "inputs": [
        {
          "internalType": "uint256",
          "name": "",
          "type": "uint256"
        }
      ],
      "name": "stakers",
      "outputs": [
        {
          "internalType": "address",
          "name": "",
          "type": "address"
        }
      ],
      "stateMutability": "view",
      "type": "function",
      "constant": true
    },
    {
      "inputs": [
        {
          "internalType": "address",
          "name": "",
          "type": "address"
        }
      ],
      "name": "stakingBalance",
      "outputs": [
        {
          "internalType": "uint256",
          "name": "",
          "type": "uint256"
        }
      ],
      "stateMutability": "view",
      "type": "function",
      "constant": true
    },
    {
      "inputs": [],
      "name": "testToken",
      "outputs": [
        {
          "internalType": "contract TestToken",
          "name": "",
          "type": "address"
        }
      ],
      "stateMutability": "view",
      "type": "function",
      "constant": true
    },
    {
      "inputs": [],
      "name": "totalStaked",
      "outputs": [
        {
          "internalType": "uint256",
          "name": "",
          "type": "uint256"
        }
      ],
      "stateMutability": "view",
      "type": "function",
      "constant": true
    },
    {
      "inputs": [
        {
          "internalType": "uint256",
          "name": "_amount",
          "type": "uint256"
        }
      ],
      "name": "stakeTokens",
      "outputs": [],
      "stateMutability": "nonpayable",
      "type": "function"
    },
    {
      "inputs": [],
      "name": "unstakeTokens",
      "outputs": [],
      "stateMutability": "nonpayable",
      "type": "function"
    },
    {
      "inputs": [
        {
          "internalType": "uint256",
          "name": "_amount",
          "type": "uint256"
        }
      ],
      "name": "customStaking",
      "outputs": [],
      "stateMutability": "nonpayable",
      "type": "function"
    },
    {
      "inputs": [],
      "name": "customUnstake",
      "outputs": [],
      "stateMutability": "nonpayable",
      "type": "function"
    },
    {
      "inputs": [],
      "name": "redistributeRewards",
      "outputs": [],
      "stateMutability": "nonpayable",
      "type": "function"
    },
    {
      "inputs": [],
      "name": "customRewards",
      "outputs": [],
      "stateMutability": "nonpayable",
      "type": "function"
    },
    {
      "inputs": [
        {
          "internalType": "uint256",
          "name": "_value",
          "type": "uint256"
        }
      ],
      "name": "changeAPY",
      "outputs": [],
      "stateMutability": "nonpayable",
      "type": "function"
    },
    {
      "inputs": [],
      "name": "claimTst",
      "outputs": [],
      "stateMutability": "nonpayable",
      "type": "function"
    }
  ],
  "bytecode": "0x60806040526040518060400160405280601a81526020017f5969656c64204661726d696e67202f20546f6b656e206441707000000000000081525060009080519060200190620000519291906200010a565b50606460035560896004556040516200214a3803806200214a8339818101604052810190620000819190620001d1565b80600160006101000a81548173ffffffffffffffffffffffffffffffffffffffff021916908373ffffffffffffffffffffffffffffffffffffffff16021790555033600260006101000a81548173ffffffffffffffffffffffffffffffffffffffff021916908373ffffffffffffffffffffffffffffffffffffffff16021790555050620002cf565b82805462000118906200024b565b90600052602060002090601f0160209004810192826200013c576000855562000188565b82601f106200015757805160ff191683800117855562000188565b8280016001018555821562000188579182015b82811115620001875782518255916020019190600101906200016a565b5b5090506200019791906200019b565b5090565b5b80821115620001b65760008160009055506001016200019c565b5090565b600081519050620001cb81620002b5565b92915050565b600060208284031215620001ea57620001e9620002b0565b5b6000620001fa84828501620001ba565b91505092915050565b600062000210826200022b565b9050919050565b6000620002248262000203565b9050919050565b600073ffffffffffffffffffffffffffffffffffffffff82169050919050565b600060028204905060018216806200026457607f821691505b602082108114156200027b576200027a62000281565b5b50919050565b7f4e487b7100000000000000000000000000000000000000000000000000000000600052602260045260246000fd5b600080fd5b620002c08162000217565b8114620002cc57600080fd5b50565b611e6b80620002df6000396000f3fe608060405234801561001057600080fd5b506004361061014d5760003560e01c80637cc302e5116100c3578063c93c8f341161007c578063c93c8f3414610344578063cc8da8b814610374578063cde5f4731461037e578063dfb0e706146103ae578063fb5cd515146103de578063fd5e6dd1146103fa5761014d565b80637cc302e5146102a6578063817b1cd2146102b05780638da5cb5b146102ce5780639bd62932146102ec578063a5ce413b1461031c578063b4e892af146103265761014d565b806363fa14661161011557806363fa1466146101f857806366f1c920146102165780636895179d146102205780636d6010c11461023e5780637547c7a31461026e57806376159b681461028a5761014d565b806306fdde03146101525780630c500a4e1461017057806329cc24071461018e57806345bc78ab146101985780635b5c58c3146101c8575b600080fd5b61015a61042a565b6040516101679190611891565b60405180910390f35b6101786104b8565b6040516101859190611953565b60405180910390f35b6101966104be565b005b6101b260048036038101906101ad9190611635565b61058b565b6040516101bf9190611953565b60405180910390f35b6101e260048036038101906101dd9190611635565b6105a3565b6040516101ef919061185b565b60405180910390f35b6102006105c3565b60405161020d9190611953565b60405180910390f35b61021e6105c9565b005b6102286107e0565b6040516102359190611876565b60405180910390f35b61025860048036038101906102539190611635565b610806565b604051610265919061185b565b60405180910390f35b6102886004803603810190610283919061168f565b610826565b005b6102a4600480360381019061029f919061168f565b610b25565b005b6102ae610c02565b005b6102b8610ded565b6040516102c59190611953565b60405180910390f35b6102d6610df3565b6040516102e391906117e0565b60405180910390f35b61030660048036038101906103019190611635565b610e19565b604051610313919061185b565b60405180910390f35b610324610e39565b005b61032e611024565b60405161033b9190611953565b60405180910390f35b61035e60048036038101906103599190611635565b61102a565b60405161036b919061185b565b60405180910390f35b61037c61104a565b005b6103986004803603810190610393919061168f565b611261565b6040516103a591906117e0565b60405180910390f35b6103c860048036038101906103c39190611635565b6112a0565b6040516103d59190611953565b60405180910390f35b6103f860048036038101906103f3919061168f565b6112b8565b005b610414600480360381019061040f919061168f565b6115b7565b60405161042191906117e0565b60405180910390f35b6000805461043790611b3e565b80601f016020809104026020016040519081016040528092919081815260200182805461046390611b3e565b80156104b05780601f10610485576101008083540402835291602001916104b0565b820191906000526020600020905b81548152906001019060200180831161049357829003601f168201915b505050505081565b60045481565b60003390506000683635c9adc5dea0000090506000819050600160009054906101000a900473ffffffffffffffffffffffffffffffffffffffff1673ffffffffffffffffffffffffffffffffffffffff1663a9059cbb84836040518363ffffffff1660e01b8152600401610533929190611832565b602060405180830381600087803b15801561054d57600080fd5b505af1158015610561573d6000803e3d6000fd5b505050506040513d601f19601f820116820180604052508101906105859190611662565b50505050565b60076020528060005260406000206000915090505481565b600c6020528060005260406000206000915054906101000a900460ff1681565b60065481565b600260009054906101000a900473ffffffffffffffffffffffffffffffffffffffff1673ffffffffffffffffffffffffffffffffffffffff163373ffffffffffffffffffffffffffffffffffffffff1614610659576040517f08c379a000000000000000000000000000000000000000000000000000000000815260040161065090611933565b60405180910390fd5b60005b600e805490508110156107dd576000600e828154811061067f5761067e611c46565b5b9060005260206000200160009054906101000a900473ffffffffffffffffffffffffffffffffffffffff1690506000600454600860008473ffffffffffffffffffffffffffffffffffffffff1673ffffffffffffffffffffffffffffffffffffffff168152602001908152602001600020546106fb9190611a11565b9050620186a08161070c91906119e0565b905060008111156107c857600160009054906101000a900473ffffffffffffffffffffffffffffffffffffffff1673ffffffffffffffffffffffffffffffffffffffff1663a9059cbb83836040518363ffffffff1660e01b8152600401610774929190611832565b602060405180830381600087803b15801561078e57600080fd5b505af11580156107a2573d6000803e3d6000fd5b505050506040513d601f19601f820116820180604052508101906107c69190611662565b505b505080806107d590611b70565b91505061065c565b50565b600160009054906101000a900473ffffffffffffffffffffffffffffffffffffffff1681565b600a6020528060005260406000206000915054906101000a900460ff1681565b60008111610869576040517f08c379a000000000000000000000000000000000000000000000000000000000815260040161086090611913565b60405180910390fd5b600160009054906101000a900473ffffffffffffffffffffffffffffffffffffffff1673ffffffffffffffffffffffffffffffffffffffff166323b872dd3330846040518463ffffffff1660e01b81526004016108c8939291906117fb565b602060405180830381600087803b1580156108e257600080fd5b505af11580156108f6573d6000803e3d6000fd5b505050506040513d601f19601f8201168201806040525081019061091a9190611662565b5080600554610929919061198a565b60058190555080600760003373ffffffffffffffffffffffffffffffffffffffff1673ffffffffffffffffffffffffffffffffffffffff1681526020019081526020016000205461097a919061198a565b600760003373ffffffffffffffffffffffffffffffffffffffff1673ffffffffffffffffffffffffffffffffffffffff16815260200190815260200160002081905550600960003373ffffffffffffffffffffffffffffffffffffffff1673ffffffffffffffffffffffffffffffffffffffff16815260200190815260200160002060009054906101000a900460ff16610a7257600d339080600181540180825580915050600190039060005260206000200160009091909190916101000a81548173ffffffffffffffffffffffffffffffffffffffff021916908373ffffffffffffffffffffffffffffffffffffffff1602179055505b6001600960003373ffffffffffffffffffffffffffffffffffffffff1673ffffffffffffffffffffffffffffffffffffffff16815260200190815260200160002060006101000a81548160ff0219169083151502179055506001600b60003373ffffffffffffffffffffffffffffffffffffffff1673ffffffffffffffffffffffffffffffffffffffff16815260200190815260200160002060006101000a81548160ff02191690831515021790555050565b600260009054906101000a900473ffffffffffffffffffffffffffffffffffffffff1673ffffffffffffffffffffffffffffffffffffffff163373ffffffffffffffffffffffffffffffffffffffff1614610bb5576040517f08c379a0000000000000000000000000000000000000000000000000000000008152600401610bac906118b3565b60405180910390fd5b60008111610bf8576040517f08c379a0000000000000000000000000000000000000000000000000000000008152600401610bef906118f3565b60405180910390fd5b8060048190555050565b6000600860003373ffffffffffffffffffffffffffffffffffffffff1673ffffffffffffffffffffffffffffffffffffffff16815260200190815260200160002054905060008111610c89576040517f08c379a0000000000000000000000000000000000000000000000000000000008152600401610c80906118d3565b60405180910390fd5b600160009054906101000a900473ffffffffffffffffffffffffffffffffffffffff1673ffffffffffffffffffffffffffffffffffffffff1663a9059cbb33836040518363ffffffff1660e01b8152600401610ce6929190611832565b602060405180830381600087803b158015610d0057600080fd5b505af1158015610d14573d6000803e3d6000fd5b505050506040513d601f19601f82011682018060405250810190610d389190611662565b5080600654610d479190611a6b565b6006819055506000600860003373ffffffffffffffffffffffffffffffffffffffff1673ffffffffffffffffffffffffffffffffffffffff168152602001908152602001600020819055506000600c60003373ffffffffffffffffffffffffffffffffffffffff1673ffffffffffffffffffffffffffffffffffffffff16815260200190815260200160002060006101000a81548160ff02191690831515021790555050565b60055481565b600260009054906101000a900473ffffffffffffffffffffffffffffffffffffffff1681565b600b6020528060005260406000206000915054906101000a900460ff1681565b6000600760003373ffffffffffffffffffffffffffffffffffffffff1673ffffffffffffffffffffffffffffffffffffffff16815260200190815260200160002054905060008111610ec0576040517f08c379a0000000000000000000000000000000000000000000000000000000008152600401610eb7906118d3565b60405180910390fd5b600160009054906101000a900473ffffffffffffffffffffffffffffffffffffffff1673ffffffffffffffffffffffffffffffffffffffff1663a9059cbb33836040518363ffffffff1660e01b8152600401610f1d929190611832565b602060405180830381600087803b158015610f3757600080fd5b505af1158015610f4b573d6000803e3d6000fd5b505050506040513d601f19601f82011682018060405250810190610f6f9190611662565b5080600554610f7e9190611a6b565b6005819055506000600760003373ffffffffffffffffffffffffffffffffffffffff1673ffffffffffffffffffffffffffffffffffffffff168152602001908152602001600020819055506000600b60003373ffffffffffffffffffffffffffffffffffffffff1673ffffffffffffffffffffffffffffffffffffffff16815260200190815260200160002060006101000a81548160ff02191690831515021790555050565b60035481565b60096020528060005260406000206000915054906101000a900460ff1681565b600260009054906101000a900473ffffffffffffffffffffffffffffffffffffffff1673ffffffffffffffffffffffffffffffffffffffff163373ffffffffffffffffffffffffffffffffffffffff16146110da576040517f08c379a00000000000000000000000000000000000000000000000000000000081526004016110d190611933565b60405180910390fd5b60005b600d8054905081101561125e576000600d8281548110611100576110ff611c46565b5b9060005260206000200160009054906101000a900473ffffffffffffffffffffffffffffffffffffffff1690506000600354600760008473ffffffffffffffffffffffffffffffffffffffff1673ffffffffffffffffffffffffffffffffffffffff1681526020019081526020016000205461117c9190611a11565b9050620186a08161118d91906119e0565b9050600081111561124957600160009054906101000a900473ffffffffffffffffffffffffffffffffffffffff1673ffffffffffffffffffffffffffffffffffffffff1663a9059cbb83836040518363ffffffff1660e01b81526004016111f5929190611832565b602060405180830381600087803b15801561120f57600080fd5b505af1158015611223573d6000803e3d6000fd5b505050506040513d601f19601f820116820180604052508101906112479190611662565b505b5050808061125690611b70565b9150506110dd565b50565b600e818154811061127157600080fd5b906000526020600020016000915054906101000a900473ffffffffffffffffffffffffffffffffffffffff1681565b60086020528060005260406000206000915090505481565b600081116112fb576040517f08c379a00000000000000000000000000000000000000000000000000000000081526004016112f290611913565b60405180910390fd5b600160009054906101000a900473ffffffffffffffffffffffffffffffffffffffff1673ffffffffffffffffffffffffffffffffffffffff166323b872dd3330846040518463ffffffff1660e01b815260040161135a939291906117fb565b602060405180830381600087803b15801561137457600080fd5b505af1158015611388573d6000803e3d6000fd5b505050506040513d601f19601f820116820180604052508101906113ac9190611662565b50806006546113bb919061198a565b60068190555080600860003373ffffffffffffffffffffffffffffffffffffffff1673ffffffffffffffffffffffffffffffffffffffff1681526020019081526020016000205461140c919061198a565b600860003373ffffffffffffffffffffffffffffffffffffffff1673ffffffffffffffffffffffffffffffffffffffff16815260200190815260200160002081905550600a60003373ffffffffffffffffffffffffffffffffffffffff1673ffffffffffffffffffffffffffffffffffffffff16815260200190815260200160002060009054906101000a900460ff1661150457600e339080600181540180825580915050600190039060005260206000200160009091909190916101000a81548173ffffffffffffffffffffffffffffffffffffffff021916908373ffffffffffffffffffffffffffffffffffffffff1602179055505b6001600a60003373ffffffffffffffffffffffffffffffffffffffff1673ffffffffffffffffffffffffffffffffffffffff16815260200190815260200160002060006101000a81548160ff0219169083151502179055506001600c60003373ffffffffffffffffffffffffffffffffffffffff1673ffffffffffffffffffffffffffffffffffffffff16815260200190815260200160002060006101000a81548160ff02191690831515021790555050565b600d81815481106115c757600080fd5b906000526020600020016000915054906101000a900473ffffffffffffffffffffffffffffffffffffffff1681565b60008135905061160581611df0565b92915050565b60008151905061161a81611e07565b92915050565b60008135905061162f81611e1e565b92915050565b60006020828403121561164b5761164a611c75565b5b6000611659848285016115f6565b91505092915050565b60006020828403121561167857611677611c75565b5b60006116868482850161160b565b91505092915050565b6000602082840312156116a5576116a4611c75565b5b60006116b384828501611620565b91505092915050565b6116c581611a9f565b82525050565b6116d481611ab1565b82525050565b6116e381611ae7565b82525050565b60006116f48261196e565b6116fe8185611979565b935061170e818560208601611b0b565b61171781611c7a565b840191505092915050565b600061172f602483611979565b915061173a82611c8b565b604082019050919050565b6000611752601c83611979565b915061175d82611cda565b602082019050919050565b6000611775604383611979565b915061178082611d03565b606082019050919050565b6000611798601283611979565b91506117a382611d78565b602082019050919050565b60006117bb602683611979565b91506117c682611da1565b604082019050919050565b6117da81611add565b82525050565b60006020820190506117f560008301846116bc565b92915050565b600060608201905061181060008301866116bc565b61181d60208301856116bc565b61182a60408301846117d1565b949350505050565b600060408201905061184760008301856116bc565b61185460208301846117d1565b9392505050565b600060208201905061187060008301846116cb565b92915050565b600060208201905061188b60008301846116da565b92915050565b600060208201905081810360008301526118ab81846116e9565b905092915050565b600060208201905081810360008301526118cc81611722565b9050919050565b600060208201905081810360008301526118ec81611745565b9050919050565b6000602082019050818103600083015261190c81611768565b9050919050565b6000602082019050818103600083015261192c8161178b565b9050919050565b6000602082019050818103600083015261194c816117ae565b9050919050565b600060208201905061196860008301846117d1565b92915050565b600081519050919050565b600082825260208201905092915050565b600061199582611add565b91506119a083611add565b9250827fffffffffffffffffffffffffffffffffffffffffffffffffffffffffffffffff038211156119d5576119d4611bb9565b5b828201905092915050565b60006119eb82611add565b91506119f683611add565b925082611a0657611a05611be8565b5b828204905092915050565b6000611a1c82611add565b9150611a2783611add565b9250817fffffffffffffffffffffffffffffffffffffffffffffffffffffffffffffffff0483118215151615611a6057611a5f611bb9565b5b828202905092915050565b6000611a7682611add565b9150611a8183611add565b925082821015611a9457611a93611bb9565b5b828203905092915050565b6000611aaa82611abd565b9050919050565b60008115159050919050565b600073ffffffffffffffffffffffffffffffffffffffff82169050919050565b6000819050919050565b6000611af282611af9565b9050919050565b6000611b0482611abd565b9050919050565b60005b83811015611b29578082015181840152602081019050611b0e565b83811115611b38576000848401525b50505050565b60006002820490506001821680611b5657607f821691505b60208210811415611b6a57611b69611c17565b5b50919050565b6000611b7b82611add565b91507fffffffffffffffffffffffffffffffffffffffffffffffffffffffffffffffff821415611bae57611bad611bb9565b5b600182019050919050565b7f4e487b7100000000000000000000000000000000000000000000000000000000600052601160045260246000fd5b7f4e487b7100000000000000000000000000000000000000000000000000000000600052601260045260246000fd5b7f4e487b7100000000000000000000000000000000000000000000000000000000600052602260045260246000fd5b7f4e487b7100000000000000000000000000000000000000000000000000000000600052603260045260246000fd5b600080fd5b6000601f19601f8301169050919050565b7f4f6e6c7920636f6e74726163742063726561746f722063616e206368616e676560008201527f2041505900000000000000000000000000000000000000000000000000000000602082015250565b7f616d6f756e742068617320746f206265206d6f7265207468616e203000000000600082015250565b7f4150592076616c75652068617320746f206265206d6f7265207468616e20302c60008201527f207472792031303020666f722028302e31303025206461696c792920696e737460208201527f6561640000000000000000000000000000000000000000000000000000000000604082015250565b7f616d6f756e742063616e6e6f7420626520300000000000000000000000000000600082015250565b7f4f6e6c7920636f6e74726163742063726561746f722063616e2072656469737460008201527f7269627574650000000000000000000000000000000000000000000000000000602082015250565b611df981611a9f565b8114611e0457600080fd5b50565b611e1081611ab1565b8114611e1b57600080fd5b50565b611e2781611add565b8114611e3257600080fd5b5056fea2646970667358221220c9d68461569adf61095582bba30437938fdb2afeeb200bd21825f1d7f89f583f64736f6c63430008060033",
  "immutableReferences": {},
  "source": "// SPDX-License-Identifier: MIT\npragma solidity >=0.8.6;\n\nimport \"@openzeppelin/contracts/token/ERC20/ERC20.sol\";\n// import \"openzeppelin/contracts/utils/math/SafeMath.sol\"; // Solidity 0.8.0 and above doesn't need to SafeMath, but it's recommended here: https://github.com/OpenZeppelin/openzeppelin-contracts/issues/2465\nimport \"@openzeppelin/contracts/access/Ownable.sol\";\n\nimport \"./TestToken.sol\";\n\ncontract StakingToken {\n    string public name = \"Yield Farming / Token dApp\";\n    TestToken public testToken;\n\n    //declaring owner state variable\n    address public owner;\n\n    //declaring default APY (default 0.1% daily or 36.5% APY yearly)\n    uint256 public defaultAPY = 100;\n\n    //declaring APY for custom staking ( default 0.137% daily or 50% APY yearly)\n    uint256 public customAPY = 137;\n\n    //declaring total staked\n    uint256 public totalStaked;\n    uint256 public customTotalStaked;\n\n    //users staking balance\n    mapping(address => uint256) public stakingBalance;\n    mapping(address => uint256) public customStakingBalance;\n\n    //mapping list of users who ever staked\n    mapping(address => bool) public hasStaked;\n    mapping(address => bool) public customHasStaked;\n\n    //mapping list of users who are staking at the moment\n    mapping(address => bool) public isStakingAtm;\n    mapping(address => bool) public customIsStakingAtm;\n\n    //array of all stakers\n    address[] public stakers;\n    address[] public customStakers;\n\n    constructor(TestToken _testToken) payable {\n        testToken = _testToken;\n\n        //assigning owner on deployment\n        owner = msg.sender;\n    }\n\n    //stake tokens function\n\n    function stakeTokens(uint256 _amount) public {\n        //must be more than 0\n        require(_amount > 0, \"amount cannot be 0\");\n\n        //User adding test tokens\n        testToken.transferFrom(msg.sender, address(this), _amount);\n        totalStaked = totalStaked + _amount;\n\n        //updating staking balance for user by mapping\n        stakingBalance[msg.sender] = stakingBalance[msg.sender] + _amount;\n\n        //checking if user staked before or not, if NOT staked adding to array of stakers\n        if (!hasStaked[msg.sender]) {\n            stakers.push(msg.sender);\n        }\n\n        //updating staking status\n        hasStaked[msg.sender] = true;\n        isStakingAtm[msg.sender] = true;\n    }\n\n    //unstake tokens function\n\n    function unstakeTokens() public {\n        //get staking balance for user\n\n        uint256 balance = stakingBalance[msg.sender];\n\n        //amount should be more than 0\n        require(balance > 0, \"amount has to be more than 0\");\n\n        //transfer staked tokens back to user\n        testToken.transfer(msg.sender, balance);\n        totalStaked = totalStaked - balance;\n\n        //reseting users staking balance\n        stakingBalance[msg.sender] = 0;\n\n        //updating staking status\n        isStakingAtm[msg.sender] = false;\n    }\n\n    // different APY Pool\n    function customStaking(uint256 _amount) public {\n        require(_amount > 0, \"amount cannot be 0\");\n        testToken.transferFrom(msg.sender, address(this), _amount);\n        customTotalStaked = customTotalStaked + _amount;\n        customStakingBalance[msg.sender] =\n            customStakingBalance[msg.sender] +\n            _amount;\n\n        if (!customHasStaked[msg.sender]) {\n            customStakers.push(msg.sender);\n        }\n        customHasStaked[msg.sender] = true;\n        customIsStakingAtm[msg.sender] = true;\n    }\n\n    function customUnstake() public {\n        uint256 balance = customStakingBalance[msg.sender];\n        require(balance > 0, \"amount has to be more than 0\");\n        testToken.transfer(msg.sender, balance);\n        customTotalStaked = customTotalStaked - balance;\n        customStakingBalance[msg.sender] = 0;\n        customIsStakingAtm[msg.sender] = false;\n    }\n\n    //airdropp tokens\n    function redistributeRewards() public {\n        //only owner can issue airdrop\n        require(msg.sender == owner, \"Only contract creator can redistribute\");\n\n        //doing drop for all addresses\n        for (uint256 i = 0; i < stakers.length; i++) {\n            address recipient = stakers[i];\n\n            //calculating daily apy for user\n            uint256 balance = stakingBalance[recipient] * defaultAPY;\n            balance = balance / 100000;\n\n            if (balance > 0) {\n                testToken.transfer(recipient, balance);\n            }\n        }\n    }\n\n    //customAPY airdrop\n    function customRewards() public {\n        require(msg.sender == owner, \"Only contract creator can redistribute\");\n        for (uint256 i = 0; i < customStakers.length; i++) {\n            address recipient = customStakers[i];\n            uint256 balance = customStakingBalance[recipient] * customAPY;\n            balance = balance / 100000;\n\n            if (balance > 0) {\n                testToken.transfer(recipient, balance);\n            }\n        }\n    }\n\n    //change APY value for custom staking\n    function changeAPY(uint256 _value) public {\n        //only owner can issue airdrop\n        require(msg.sender == owner, \"Only contract creator can change APY\");\n        require(\n            _value > 0,\n            \"APY value has to be more than 0, try 100 for (0.100% daily) instead\"\n        );\n        customAPY = _value;\n    }\n\n    //cliam test 1000 Tst (for testing purpose only !!)\n    function claimTst() public {\n        address recipient = msg.sender;\n        uint256 tst = 1000000000000000000000;\n        uint256 balance = tst;\n        testToken.transfer(recipient, balance);\n    }\n}\n",
  "sourcePath": "/home/francesco/workspace/smart-contracts/coiniran/final-project/staking-token-solidity/smart-contract/contracts/StakingToken.sol",
  "compiler": {
    "name": "solc",
    "version": "0.8.6+commit.11564f7e.Emscripten.clang"
  },
  "schemaVersion": "3.4.2",
  "updatedAt": "2021-10-02T12:23:56.875Z",
  "networkType": "ethereum",
  "devdoc": {
    "kind": "dev",
    "methods": {},
    "version": 1
  },
  "userdoc": {
    "kind": "user",
    "methods": {},
    "version": 1
  }
}